:100000000C945D000C9485000C9485000C94B00653
:100010000C948B060C9466060C9485000C94850059
:100020000C9485000C9485000C9485000C9485003C
:100030000C9485000C9485000C9485000C9485002C
:100040000C94C4050C9485000C9434060C940E0694
:100050000C9485000C9485000C9485000C9485000C
:100060000C9496040C9485000000000023002600E8
:10007000290000000000250028002B0004040404CF
:100080000404040402020202020203030303030342
:10009000010204081020408001020408102001021F
:1000A00004081020000000080002010000030407FB
:1000B0000000000000000000D50611241FBECFEF95
:1000C000D8E0DEBFCDBF11E0A0E0B1E0E4E8F1E1AF
:1000D00002C005900D92A434B107D9F724E0A4E43E
:1000E000B1E001C01D92A634B207E1F710E0CDE502
:1000F000D0E004C02197FE010E94B508CC35D1079D
:10010000C9F70E9447070C94C0080C94000090E0C7
:10011000FC01EC55FF4F2491FC01E057FF4F349157
:10012000FC01E458FF4FE491EE23B1F1222339F1B1
:10013000233091F038F42130A9F0223001F584B554
:100140008F7D12C0273091F02830A1F02430B9F40F
:10015000809180008F7D03C0809180008F77809395
:1001600080000DC084B58F7784BD09C08091B00038
:100170008F7703C08091B0008F7D8093B000F0E056
:10018000EE0FFF1FEE58FF4FA591B4918FB7F89473
:10019000EC91E32BEC938FBF089585ED8093BC0029
:1001A0008091BC0084FDFCCF10920F020895409115
:1001B000E901262F30E0240F311D21323105DCF416
:1001C00020910F022430C9F4FC0180E090E08617F2
:1001D00058F43091E9012191DC01A953BE4FA30FDE
:1001E000B11D2C930196F3CF8091E901680F6093C4
:1001F000E90180E0089581E0089582E0089508957E
:1002000008950895E091C4018091C301E81730F486
:10021000F0E0ED55FE4F808190E008958FEF9FEF65
:1002200008959091C4018091C301981750F4E92F6B
:10023000F0E0ED55FE4F208130E09F5F9093C401C8
:1002400002C02FEF3FEFC90108958091C30190E0F4
:100250002091C401821B91090895CF92DF92EF9201
:10026000FF920F931F93CF93DF937C01CB018A0101
:100270002091A201222389F0EB016B01C40ED51E4F
:10028000CC15DD0569F06991D701ED91FC910190E4
:10029000F081E02DC7010995F3CF642F0E94D700AC
:1002A000C801DF91CF911F910F91FF90EF90DF90E8
:1002B000CF900895CF93DF931F92CDB7DEB76983B8
:1002C0002091A2012223D1F02091C501203240F0DB
:1002D00021E030E0FC013383228380E090E015C010
:1002E0008091C601E82FF0E0EE57FE4F9981908390
:1002F0008F5F8093C6018093C50105C061E0CE0188
:1003000001960E94D70081E090E00F90DF91CF919D
:1003100008953FB7F89480917E0190917F01A0915C
:100320008001B091810126B5A89B05C02F3F19F02F
:100330000196A11DB11D3FBFBA2FA92F982F882765
:10034000820F911DA11DB11DBC01CD0142E0660FC0
:10035000771F881F991F4A95D1F70895CF92DF9292
:10036000EF92FF920F931F93CF93DF936C017A016B
:100370008B01C0E0D0E0CE15DF0581F0D8016D9192
:100380008D01D601ED91FC910190F081E02DC60127
:100390000995892B11F02196EECF7E01C701DF91DF
:1003A000CF911F910F91FF90EF90DF90CF90089524
:1003B000089580E090E00895FC01538D448D252F31
:1003C00030E0842F90E0821B930B541710F0CF96EF
:1003D000089501970895FC01918D828D981761F021
:1003E000828DDF01A80FB11D5D968C91928D9F5F6C
:1003F0009F73928F90E008958FEF9FEF0895FC0117
:10040000918D828D981731F0828DE80FF11D858DC9
:1004100090E008958FEF9FEF0895FC01918D228D5C
:10042000892F90E0805C9F4F821B91098F739927E1
:10043000089581E492E00E940D0221E0892B09F4E5
:1004400020E0822F0895FC01848DDF01A80FB11DEB
:10045000A35ABF4F2C91848D90E001968F739927FA
:10046000848FA689B7892C93A089B1898C918370D8
:1004700080648C93938D848D981306C00288F389D1
:10048000E02D80818F7D80830895EF92FF920F93FE
:100490001F93CF93DF93EC0181E0888F9B8D8C8D30
:1004A000981305C0E889F989808185FD26C0F62E5C
:1004B0000B8D10E00F5F1F4F0F731127E02E8C8DF7
:1004C000E8120CC00FB607FCFACFE889F9898081E1
:1004D00085FFF5CFCE010E942302F1CF8B8DFE0167
:1004E000E80FF11DE35AFF4FF0829FB7F8940B8F8E
:1004F000EA89FB89808180620AC09FB7F894EE89FF
:10050000FF896083E889F9898081837080648083B2
:100510009FBF81E090E0DF91CF911F910F91FF90FD
:10052000EF900895CF93DF93EC01888D8823C9F075
:10053000EA89FB89808185FD05C0A889B9898C91EC
:1005400086FD0FC00FB607FCF5CF808185FFF2CF87
:10055000A889B9898C9185FFEDCFCE010E94230235
:10056000E7CFDF91CF91089580E090E0892B29F0CB
:100570000E94190281110C9400000895CF93FC0190
:10058000918162818081C38121E02093A201C09387
:1005900078011092C6011092C50160956923682BFD
:1005A00085E392E00E945A019091C501913208F0D2
:1005B00045C080910F028111FCCF82E080930F0231
:1005C00081E0809311028FEF80930E02109233022C
:1005D00090933202A2E8B1E0E2E1F2E080E0981705
:1005E00021F02D9121938F5FFACF109234028091E8
:1005F0003402CC0FC82BC09334028091100281309A
:1006000061F410921002809134028093BB008091BB
:10061000BC0083FDF8CF85EC01C085EE8093BC0063
:1006200080910F028230E1F380910E028F3F31F012
:1006300080910E02803211F080910E021092C6015C
:100640001092C5011092A201CF91089590E0FC0193
:10065000EE0FFF1FE459FF4FA591B4912C91FC01BF
:10066000EB58FE4F30812083880F991FFC01E0502A
:10067000FF4F0190F081E02D80810895DC0181E041
:1006800012968C9312971196EC9111978FE1E89F37
:10069000F0011124E252FD4F408121E030E0C90118
:1006A0000C9002C0880F991F0A94E2F7842B808374
:1006B000CF010C94BE02DC0112961C921297119687
:1006C000EC9111978FE1E89FF0011124E252FD4F68
:1006D000408121E030E0C9010C9002C0880F991FD1
:1006E0000A94E2F7809584238083CF010C94BE02A4
:1006F000CF92DF92FF920F931F93CF93DF936C0102
:1007000081E0F601828360834183FFE14F9FE00136
:100710001124C252DD4F8A8101E010E001C0000FB8
:100720006A95EAF7802B8A838881F02EF0948F21D6
:100730008883CE010E94BE02F6018281882321F0C7
:100740008881082B088303C08881F822F882CE01B3
:10075000DF91CF911F910F91FF90DF90CF900C947C
:10076000BE02009769F0FC0101900020E9F7319783
:10077000AF01481B590BBC0181E492E00C94AE011F
:1007800080E090E00895CF93DF930E94B103EC01E5
:100790008AE291E00E94B1038C0F9D1FDF91CF91FF
:1007A00008950C94B1030E94BB08CF93DF93FC0122
:1007B00081818483838190910F029111FCCF91E01C
:1007C00090930F02909311022FEF20930E0210923C
:1007D0003302109232029093340290913402880FC7
:1007E000892B8093340280911002813061F4109241
:1007F0001002809134028093BB008091BC0083FD85
:10080000F8CF85EC01C085EE8093BC0080910F028B
:100810008130E1F380913302811103C09091330262
:1008200001C091E0C2E1D2E0A3EAB1E080E0891723
:1008300021F029912D938F5FFACF1092C4018093FC
:10084000C301811101C0FFCFEF0185E392E00E9457
:1008500011018983DF91CF9108951F93CF93DF9387
:10086000FC011081C181FFE1CF9FE0011124C25240
:10087000DD4FCE010E94D503898190E002C095959D
:1008800087951A95E2F78170DF91CF911F910895B6
:10089000CF93DF9380914401883010F0109244018F
:1008A000C09144018FE1C89FE0011124C252DD4F85
:1008B0006B831092C4011092C3011092C601109272
:1008C000C50110920F0281E0809311021092100274
:1008D00082E10E94870083E10E9487008091B90035
:1008E0008E7F8093B9008091B9008D7F8093B9008D
:1008F00088E48093B80085E48093BC008FEF90E09B
:100900009093E8018093E70180E091E09093EC01FF
:100910008093EB01CE010E94D5038091440191E0C8
:10092000980F90934401DF91CF9108951F920F92F9
:100930000FB60F9211242F933F934F935F936F93B2
:100940007F938F939F93AF93BF93EF93FF93809188
:10095000B900887F803609F49CC068F5883209F4B4
:100960005BC090F4803109F454C038F4882309F452
:10097000F6C0883009F44DC0F6C0883109F44CC087
:10098000803209F45DC0EFC0803409F468C048F4D7
:10099000803309F455C0883309F0E5C080930E0216
:1009A000D8C0803509F44FC0883509F45DC088345B
:1009B00009F0D9C0D6C0883909F4C7C0A8F488376F
:1009C00009F467C038F4883609F463C0803709F445
:1009D00060C0C9C0883809F4B8C0803909F45FC064
:1009E000803809F0C0C05BC0803B09F486C038F491
:1009F000803A09F466C0883A09F47FC0B4C0803CEC
:100A000009F4A7C0883C09F4A4C0883B09F48AC053
:100A1000AAC08091340210C09091330280913202BA
:100A2000981770F5E091330281E08E0F80933302C6
:100A3000F0E0EE5EFD4F80818093BB0085EC86C0C8
:100A400080930E028EC0E091330281E08E0F80937E
:100A500033028091BB00F0E0EE5EFD4F8083909109
:100A60003302809132026EC0E091330281E08E0F3A
:100A7000809333028091BB00F0E0EE5EFD4F8083F7
:100A80008091110281116DC081E08093100284EA8F
:100A900061C083E080930F0210920D02CFCF80914E
:100AA0000D02803208F051C0E0910D0281E08E0FFE
:100AB00080930D028091BB00F0E0E351FE4F8083F4
:100AC000BDCF85EC8093BC0010920F0280910D0287
:100AD000803230F4E0910D02F0E0E351FE4F1082DD
:100AE00060910D0270E0E091EB01F091EC018DEE70
:100AF00091E0099510920D0236C084E080930F02B8
:100B00001092EA011092E901E091E701F091E80109
:100B100009958091E901811105C081E08093E90187
:100B20001092C701E091EA0181E08E0F8093EA0103
:100B3000F0E0E953FE4F80818093BB009091EA0181
:100B40008091E901981708F479CF85E88093BC007B
:100B50000AC085EC8093BC0010920F0204C0109272
:100B60000E020E94CD00FF91EF91BF91AF919F9136
:100B70008F917F916F915F914F913F912F910F9046
:100B80000FBE0F901F9018951F920F920FB60F92E5
:100B900011242F933F938F939F93AF93BF93809193
:100BA0007A0190917B01A0917C01B0917D013091FF
:100BB000790123E0230F2D3720F40196A11DB11DEB
:100BC00005C026E8230F0296A11DB11D20937901CF
:100BD00080937A0190937B01A0937C01B0937D0177
:100BE00080917E0190917F01A0918001B09181015F
:100BF0000196A11DB11D80937E0190937F01A0936A
:100C00008001B0938101BF91AF919F918F913F91EE
:100C10002F910F900FBE0F901F9018951F920F925B
:100C20000FB60F9211242F933F934F935F936F93BF
:100C30007F938F939F93AF93BF93EF93FF9381E441
:100C400092E00E942302FF91EF91BF91AF919F919B
:100C50008F917F916F915F914F913F912F910F9065
:100C60000FBE0F901F9018951F920F920FB60F9204
:100C700011242F938F939F93EF93FF93E091510251
:100C8000F09152028081E0915702F091580282FD6A
:100C900012C0908180915A028F5F8F7320915B0206
:100CA000821751F0E0915A02F0E0EF5BFD4F958F13
:100CB00080935A0201C08081FF91EF919F918F91A3
:100CC0002F910F900FBE0F901F9018951F920F92AB
:100CD0000FB60F9211242F933F934F935F936F930F
:100CE0007F938F939F93AF93BF93EF93FF9382E094
:100CF0000E942603FF91EF91BF91AF919F918F9139
:100D00007F916F915F914F913F912F910F900FBE07
:100D10000F901F9018951F920F920FB60F921124EB
:100D20002F933F934F935F936F937F938F939F93F3
:100D3000AF93BF93EF93FF9381E00E942603FF914F
:100D4000EF91BF91AF919F918F917F916F915F9143
:100D50004F913F912F910F900FBE0F901F901895BC
:100D60001F920F920FB60F9211242F933F934F9320
:100D70005F936F937F938F939F93AF93BF93EF9303
:100D8000FF9380E00E942603FF91EF91BF91AF9106
:100D90009F918F917F916F915F914F913F912F9193
:100DA0000F900FBE0F901F9018951092380210925E
:100DB000370288EE93E0A0E0B0E080933902909390
:100DC0003A02A0933B02B0933C022AE031E0309318
:100DD000360220933502109244021092430280930F
:100DE000450290934602A0934702B09348028CE1DB
:100DF00091E0909342028093410285EC90E09093C1
:100E00004E0280934D0284EC90E0909350028093C8
:100E10004F0280EC90E0909352028093510281EC5B
:100E200090E0909354028093530282EC90E0909370
:100E300056028093550286EC90E09093580280937E
:100E4000570210925A0210925B0210925C021092AA
:100E50005D02EEEDF2E086ED93E0108211821282E7
:100E60001382148215821682DF0117969F01215F7B
:100E70003F4F1D92A217B307E1F77F961D921D9277
:100E8000EA17FB07D9F78E179F0739F7089578946B
:100E900084B5826084BD84B5816084BD85B582607F
:100EA00085BD85B5816085BD80916E008160809330
:100EB0006E00109281008091810082608093810099
:100EC00080918100816080938100809180008160A9
:100ED000809380008091B10084608093B100809104
:100EE000B00081608093B00080917A00846080932C
:100EF0007A0080917A00826080937A0080917A00F3
:100F0000816080937A0080917A00806880937A0073
:100F10001092C100E0915102F091520202E0008370
:100F2000E0914D02F0914E021082E0914F02F0915B
:100F3000500280E1808310925902E0915502F091B5
:100F4000560286E08083E0915302F0915402808142
:100F500080618083E0915302F09154028081886027
:100F60008083E0915302F0915402808180688083F5
:100F7000E0915302F091540280818F7D80838DE255
:100F800091E00E94C30369E388E194E00E94480471
:100F9000182F10921604809317042FE1829FE0010E
:100FA0001124C252DD4F8A818E7F8A8388818E7F91
:100FB0008883CE010E94BE0281E0809314041093C6
:100FC00015048A818D7F8A8388818D7F8883CE01F5
:100FD0000E94BE0200931204109313048A818B7F37
:100FE0008A8388818B7F8883CE010E94BE0283E042
:100FF00080931004109311048A81877F8A838881EB
:10100000877F8883CE010E94BE0283E391E00E9425
:10101000C3036FE382EE93E00E944804C82F482F79
:1010200060E08FED93E00E9478034C2F61E08CED3F
:1010300093E00E9478034C2F62E089ED93E00E94D8
:1010400078034C2F63E086ED93E00E9478038AE3F7
:1010500091E00E94C30386E194E00E942D0488235E
:1010600049F08FE391E00E94D1038FED93E00E945D
:101070005B0308C081E491E00E94D1038FED93E00F
:101080000E943E0384E194E00E942D04882349F0ED
:101090008FE391E00E94D1038CED93E00E945B030B
:1010A00008C081E491E00E94D1038CED93E00E949E
:1010B0003E0382E194E00E942D04882349F08FE3EF
:1010C00091E00E94D10389ED93E00E945B0308C088
:1010D00081E491E00E94D10389ED93E00E943E03F8
:1010E00080E194E00E942D04882349F08FE391E091
:1010F0000E94D10386ED93E00E945B0308C081E467
:1011000091E00E94D10386ED93E00E943E030E948D
:1011100089014B015C0180EDC82E87E0D82EE12CBF
:10112000F12C0E948901DC01CB0188199909AA09D7
:10113000BB09883E9340A105B10598F381E0C81A28
:10114000D108E108F10828EE820E23E0921EA11CCE
:10115000B11CC114D104E104F10419F78AE291E051
:101160000E94B1030E94B40276CFEE0FFF1F0590DC
:10117000F491E02D099481E090E0F8940C94C0087B
:04118000F894FFCF11
:101184006B006C006D00000000005A012D01D901B4
:101194000101250111010201000000004502AE0118
:1011A400DC0192020D02EB01FF010D0A005365748C
:1011B40075700052656C61797300446F6E65003020
:0411C40000310000F6
:00000001FF
